:020000040000FA
:020000000528D1
:040002000034003492
:080008005D2821001A1B0628E7
:100010002100990170309900991721009A1A0E2831
:10002000CE2023009F0123009B010F309B00230063
:100030009C0123009E012300990123009D01B03003
:100040009D002100911622009D0122009C012400A8
:1000500038309500240013309200240096012400CB
:10006000970120000230A2000430A3000830A40051
:100070001030A5002030A600B401B501B601B701CB
:100080000130B9008B170B17452820008D10371D44
:10009000452837168D142208B000B5173508B10071
:1000A000B30189202608B0003608B1000130B20043
:1000B00033148920B7018D10452820008B0126219B
:1000C000911A6820200091018B170B172A21090033
:1000D0002300190820008D14B800371A0800B7183B
:1000E000852837188128B4003412B4123413B4139D
:1000F000340803113902031D08003808B40037140E
:1001000008003808B500B71408003808B6003715DD
:020110000800E5
:0E01120020008B01C4202400161416188E281D
:1001200020008D1430082400910024001418962813
:100130002400161BBA28C420200031082400910096
:1001400024001418A1282400161BBA28C42020005B
:10015000331CB32832082400910024001418AE2860
:100160002400161BBA28240016151619B5288B175B
:100170000B17080020008D10240016151619BE2834
:1001800020008B170B1708001F30240016052000D5
:0C019000031DC42824001419CA2808000C
:04019C002100F4301A
:1001A00095002000C0308B0021000030910021001C
:1001B0000030920025000030930025009A012200B3
:1001C0000030940020000030980020009C01003096
:1001D00020009B0021009E139E161E1620008C01FD
:1001E000230000308C002100FE308C0020008D01A7
:1001F000210000308D00230000308D0024000030ED
:100200008D0025008D0126008D0120008E01230028
:0C02100000308E002100FF308E0008003E
:04021C0020008B1320
:1002200023009513151555309600AA3096009514A5
:0C02300095181829151120001212080062
:04023C00230091000A
:0C02400023009513151423001308080078
:04024C00A000030803
:04025000A100080001
:080254002108830020080800C6
:020000040001F9
:02000E00A42923
:02001000FF1FD0
:00000001FF
