:020000040000FA
:020000000528D1
:040002000034003492
:08000800232921001A1B062820
:100010002100990170309900991721009A1A0E2831
:10002000572123009F0123009B010F309B002300D9
:100030009C0123009E012300990123009D01B03003
:100040009D002100911622009D0122009C012400A8
:1000500028309500240013309200240096012400DB
:10006000970120000230A2000430A3000830A40051
:100070001030A5002030A600B401B501B601B701CB
:10008000C0010230C1001C30C2004030C30030301B
:10009000C4002130C5003530C6002630C7003A30D4
:1000A000C8002B30C9000D08B9008B170B178B1532
:1000B00059282000371D5928371642083502031CDD
:1000C0001E294308350203181E2940080311350272
:1000D00003190529031CB7284008033E3502031CF9
:1000E000A1284008083E3502031C942840080C3E15
:1000F000031135020319992835084402031C83288B
:100100002208C100052935084602031C8A28230855
:10011000C100052935084802031C91282408C100A4
:1001200005292508C1000529411A05290310C10D1B
:10013000A128C11905290310C10DC1190529C10D37
:10014000A1284118A828C118AD284119B2280529AD
:10015000350844020318C10D052935084602031865
:10016000C10D0529350848020318C10D05290530C0
:10017000400235020318C7280A304002350203182E
:10018000DD280C30400235020319FD287C28C119F6
:10019000CE284119D328C118D82805294908350285
:1001A000031CC10C052947083502031CC10C052995
:1001B00045083502031CC10C052941180529031007
:1001C000C10CC119CE284119D328C118D828052936
:1001D0004908350203180529C10CC10C0529470837
:1001E0003502031805290130C100052945083502EB
:1001F000031805290130C1000529411805290310FC
:10020000C10C41180529C10C05294108B000350869
:10021000C000B100341AB117B301AE212608B000F6
:100220003608B1004108B8000310B80C341A38166B
:100230003808B2003314AE21B7015928B701B5010F
:10024000B401B601592820008B130B138B1119220E
:10025000911A33210B185421200091018B170B1791
:100260008B151D2209002300190820008D14B800E9
:10027000371A0800B718502937184C29B40034121F
:10028000B4123413B413340803113902031D0800E7
:100290003808B400371408003808B500B71408004F
:0E02A0003808B600371508000D08B900080030
:0202AE0021002D
:1002B000F4309500200000308B00210000309100C8
:1002C00021000030920025000030930025009A01A3
:1002D00022000030940020000030980020009C0193
:1002E000003020009B0021009E139E161E16200049
:1002F0008C01230000308C002100FF308C0027008F
:1003000091012700920127008C0126008C0120001A
:100310008D012100FF308D00230000308D0024006E
:1003200000308D0025008D0126008D0127000F3043
:100330009400270095012700960120008E012300DC
:1003400000308E002100FE308E002700970127002C
:0C035000980127009D0127009D01080076
:04035C0020008B01F1
:10036000F7212400961216141618B42920008D14B3
:1003700030082400910024001418BC29F72124001F
:10038000161BE92920008D1020003108240091005F
:1003900024001418C929F7212400161BE92920007C
:1003A000331CDC2932082400910024001418D629BB
:1003B000F7212400161BE929F721240096161616AA
:1003C000161AE02916151619E32920008B170B17AA
:1003D000080020008D10240096161616161AEE2915
:1003E00016151619F12920008B170B1708001F305E
:1003F000240016052000031DF72924001419FD29E7
:020400000800F2
:0E04020020008B13230095131515553096001E
:10041000AA309600951495180B2A15112000121277
:020420000800D2
:0E0422002300910023009513151423001308E6
:020430000800C2
:08043200A0000308A10008006E
:06043A00210883002008E8
:020440000800B2
:020000040001F9
:02000E00A42923
:02001000FF1FD0
:00000001FF
