:020000040000FA
:020000000528D1
:040002000034003492
:08000800BD28210072309900AF
:1000100021009A1A0928D7202400363095002400A0
:1000200002309200240096011614240097019714C0
:10003000171422009D0122009C011C30A3001D30DA
:10004000A4001E30A5001F30A6002030A7002130DC
:10005000A8002230A9002330B0002430B1002530A0
:10006000B2002630B3002730B4002830B500293064
:10007000B6002A30B7002B30B8002C30B9002D3034
:10008000C0002E30C1002F30C2003030C300FF301E
:10009000E300E200E100E0002421210091158B172C
:1000A0000B175228000024009418B7202000C11C10
:1000B0005228A21B4214A2132308B4200319BD28FE
:1000C0002408B4200319BD282508B4200319BD282D
:1000D0002608B4200319BD282708B4200319BD2819
:1000E0002808B4200319BD2852282908B420031970
:1000F000BD283008B4200319BD283108B4200319E5
:10010000BD283208B4200319BD283308B4200319D0
:10011000BD283408B4200319BD283508B4200319BC
:10012000BD283608B4200319BD283708B4200319A8
:10013000BD283808B4200319BD283908B420031994
:10014000BD284008B4200319BD284108B420031974
:10015000BD284208B4200319BD284308B420031960
:10016000BD28C101A2015228031122020800240067
:100170009512000000009516080020008B015921FF
:100180000D1120009119C92020008B170B175D213C
:100190000900200091010D11240011082000411CCC
:0E01A000D228A200C114411424001516080034
:0201AE0021002E
:1001B000F4309500200000308B00210000309100C9
:1001C00021000030920025000030930025009A01A4
:1001D00022000030940020000030980020009C0194
:1001E000003020009B0021009E139E161E17200049
:1001F0008C01230000308C00210000308C00200096
:100200008D01210000308D00230000308D0024007E
:1002100000308D0025008D0126008D0120008E010B
:10022000230000308E002100FF308E0008002000E7
:100230008F01210000308F0023008F0124008F01E7
:0802400025008F0126008F014B
:080248002000003063020319DD
:100250002C294221E30B292900306202031933299A
:100260004221E20B30290030610203193A29422170
:10027000E10B302900306002031933294221E00BE1
:100280003E2908008D154D21111C442918108D118F
:100290004D21111C4929181008002000D630970064
:1002A0002000D83096002000343098001814111027
:0202B000080044
:0802B200A0000308A1000800F0
:0602BA002108830020086A
:0202C000080034
:020000040001F9
:02000E00A42923
:02001000FF1FD0
:00000001FF
