:020000040000FA
:020000000528D1
:040002000034003492
:080008008E2821007B309900D5
:1000100021009A1A0928A8202400363095002400CF
:1000200002309200240096011614240097019714C0
:10003000171422009D0122009C011C30A3001D30DA
:10004000A4001E30A5001F30A6002030A7002130DC
:10005000A8002230A9002330B0002430B1002530A0
:10006000B2002630B3002730B4002830B500293064
:10007000B6002A30B7002B30B8002C30B9002D3034
:10008000C0002E30C1002F30C2003030C300E30169
:10009000E201E101210091158B170B1720000C14D0
:1000A00051280D16FF30E100E000F5200D12FF3061
:1000B000E100E000F520512803112202080024008D
:1000C00095120000000095160800512849084602C4
:1000D00003196D2803187C28742850084702031957
:1000E0008C280318882884280D1646084902E10048
:1000F00047085002E0008C280D1249084602E10032
:1001000050084702E0008C2847085002E0008C2885
:1001100050084702E0008C28F520080020008B01E1
:100120003C210D11200091199A2020008B170B17EC
:1001300040210900200091010D1124001108200028
:10014000411CA328A200C114411424001516080064
:100150002100F4309500200000308B002100003099
:10016000910021000030920025000030930025000E
:100170009A012200003094002000003098002000F6
:100180009C01003020009B0021009E139E161E172C
:1001900020008C01230000308C00210000308C00F6
:1001A00020008D01210000308D00230000308D00E3
:1001B000240000308D0025008D0126008D012000D7
:1001C0008E01230000308E002100FF308E000800D9
:1001D00020008F01210000308F0023008F012400B8
:0A01E0008F0125008F0126008F011A
:0601EA002000003063025A
:1001F00003190629E601E501E4012521E40BFD28A8
:10020000E50BFC28FA0BFB28E30BFA28003062020E
:1002100003191329E501E4012521E40B0C29E50B61
:100220000B29E20B0A290030610203191D29E401A0
:100230002521E40B1829E10B17290030600203196E
:1002400008002521E00B212908008D153021111C03
:10025000272918108D113021111C2C291810080085
:100260002000FF3097002000A0309600200034309E
:08027000980018141110080099
:08027800A0000308A10008002A
:0802800021088300200808009A
:020000040001F9
:02000E00A4212B
:02001000FF1FD0
:00000001FF
