:020000040000FA
:020000002F28A7
:040002000034003492
:08000800AB288207013401342A
:100010000134013401340134013401340134013438
:100020000134013401340134013401340134013428
:1000300001340134820708340F3418341F34283453
:100040002F3438343F3448344F3458345F346834B4
:100050006F3478347F34803488348F34983421007E
:100060007B30990021009A1A3328C42024003630AE
:1000700095002400023092002400960116142400FA
:1000800097019714171422009D0122009C01E3019F
:10009000E201E101E0010130C600E1000830C700E3
:1000A000E0001121210091158B170B1720000C1473
:1000B00059280000C11C5928A21F6D28A2131C300A
:1000C000220203196D280520C9001C3022021A20C3
:1000D000D0007920C101A201592820000C128C12F5
:1000E000C101A201592824009512000000009516B4
:1000F0000800490846020319802803188F2887281A
:10010000500847020319A12803189C2897280D16A8
:1001100046084902E10047085002E000A1280D12FC
:1001200049084602E10050084702E000A1280D16E8
:1001300047085002E000A1280D1250084702E000D5
:10014000A128C7004908C6005008C7001121200097
:100150008C160C12080020008B013A212000911906
:10016000B62020008B170B173E21090020009101BB
:100170000C16240011082000411CBF28A200C11445
:080180004114240015160800CB
:080188002100F4309500200075
:1001900000308B00210000309100210000309200DF
:1001A00025000030930025009A01220000309400C1
:1001B00020000030980020009C01003020009B00AF
:1001C00021009E139E161E1720008C012300003074
:1001D0008C00210000308C0020008D0121000030B7
:1001E0008D00230000308D00240000308D0025009C
:1001F0008D0126008D0120008E01230000308E002D
:100200002100FF308E00080020008F012100003007
:100210008F0023008F0124008F0125008F0126000D
:020220008F014C
:0E0222000030610703191B29E4012321E40BBE
:100230001629E10B15290030600703190800232156
:10024000E00B1F2908008D152E21111C25291810DF
:100250008D112E21111C2A29181008002000FF30B2
:1002600097002000A0309600200034309800181429
:040270001110080061
:08027400A0000308A10008002E
:04027C0021088300D2
:04028000200808004A
:020000040001F9
:02000E00A4212B
:02001000FF1FD0
:00000001FF
