:020000040000FA
:020000000528D1
:040002000034003492
:080008006A2821007B309900F9
:1000100021009A1A092884202400363095002400F3
:1000200002309200240096011614240097019714C0
:10003000171422009D0122009C011C30A3001D30DA
:10004000A4001E30A5001F30A6002030A7002130DC
:10005000A8002230A9002330B0002430B1002530A0
:10006000B2002630B3002730B4002830B500293064
:10007000B6002A30B7002B30B8002C30B9002D3034
:10008000C0002E30C1002F30C2003030C300E30169
:10009000E201E101210091158B170B1720000C14D0
:1000A00051280D16FF30E100E000D1200D12FF3085
:1000B000E100E000D12051280311220208002400B1
:1000C00095120000000095160800512846084902C4
:1000D00003196A2820008B0118210D1120009119A5
:1000E000762020008B170B171C210900200091019E
:1000F0000D11240011082000411C7F28A200C1140A
:0801000041142400151608004B
:080108002100F43095002000F5
:1001100000308B002100003091002100003092005F
:1001200025000030930025009A0122000030940041
:1001300020000030980020009C01003020009B002F
:1001400021009E139E161E1720008C0123000030F4
:100150008C00210000308C0020008D012100003037
:100160008D00230000308D00240000308D0025001C
:100170008D0126008D0120008E01230000308E00AD
:100180002100FF308E00080020008F012100003088
:100190008F0023008F0124008F0125008F0126008E
:0201A0008F01CD
:0E01A2002000003063020319E228E601E501A7
:1001B000E4010121E40BD928E50BD828D60BD72878
:1001C000E30BD628003062020319EF28E501E401B1
:1001D0000121E40BE828E50BE728E20BE6280030D4
:1001E00061020319F928E4010121E40BF428E10B71
:1001F000F32800306002031908000121E00BFD28FC
:1002000008008D150C21111C032918108D110C21CB
:10021000111C0829181008002000FF30970020004A
:10022000A0309600200034309800181411100800F7
:08023000A0000308A100080072
:080238002108830020080800E2
:020000040001F9
:02000E00A4212B
:02001000FF1FD0
:00000001FF
