:020000040000FA
:020000000528D1
:040002000034003492
:08000800342921007B3099002E
:1000100021009A1A09284D21240036309500240029
:1000200002309200240096011614240097019714C0
:10003000171422009D0122009C011C30A3001D30DA
:10004000A4001E30A5001F30A6002030A7002130DC
:10005000A8002230A9002330B0002430B1002530A0
:10006000B2002630B3002730B4002830B500293064
:10007000B6002A30B7002B30B8002C30B9002D3034
:10008000C0002E30C1002F30C2003030C30021002C
:1000900091158B170B17200090144E280000240098
:1000A0009418CA202000C11C4E28A21FC528A213E4
:1000B0002308031122020319C52824080311220270
:1000C0000319D0282508031122020319D528260870
:1000D000031122020319DA28270803112202031947
:1000E000DF282808031122020319E4284E282908D2
:1000F000031122020319D028300803112202031928
:10010000EE283108031122020319F32832080311E3
:1001100022020319F8283308031122020319FD28CB
:10012000340803112202031902293508031122029F
:100130000319072936080311220203190C2937086D
:10014000031122020319112938080311220203198D
:10015000162939080311220203191B29400803112B
:10016000220203192029410803112202031925291B
:1001700042080311220203192A294308031122020B
:1001800003192F29C101A2014E2820008C018F01E3
:100190008D014E28240095120000000095160800DD
:1001A00020000D14A201C1014E2820008D14A201CF
:1001B000C1014E2820000D15A201C1014E282000CA
:1001C0008D15A201C1014E2820000D16A201C1010A
:1001D0004E2820008D16A201C1014E2820000D17C7
:1001E000A201C1014E2820008D17A201C1014E2895
:1001F00020000C14A201C1014E2820008C14A20181
:10020000C1014E2820000C15A201C1014E2820007A
:100210008C15A201C1014E2820000C16A201C101BB
:100220004E2820008C16A201C1014E2820000D1777
:10023000A201C1014E2820008D17A201C1014E2844
:1002400020000F14A201C1014E2820008F14A2012A
:10025000C1014E2820000F15A201C1014E28200027
:100260008F15A201C1014E2820008B01A7210D117D
:1002700020009119402120008B170B17AB2109009A
:1002800020009101240011082000411C4829A200EF
:0A029000C1144114240015160800E3
:06029A002100F430950084
:1002A000200000308B002100003091002100003040
:1002B000920025000030930025009A0122000030B2
:1002C000940020000030980020009C0100302000A5
:1002D0009B0021009E139E161E1720008C012300F8
:1002E00000308C00210000308C0020008D012100A6
:1002F00000308D00230000308D00240000308D0080
:1003000025008D0126008D0120008E012300003084
:100310008E00210011308E0020008F01210000305E
:100320008F0023008F0124008F0125008F012600FC
:100330008F0120001010901010112100003090004B
:0E034000230090012400900125009001080088
:02034E00A0000D
:060350000308A1000800F3
:080356002108830020080800C3
:020000040001F9
:02000E00A42923
:02001000FF1FD0
:00000001FF
