:020000040000FA
:020000002F28A7
:040002000034003492
:08000800A42882070134013431
:100010000134013401340134013401340134013438
:100020000134013401340134013401340134013428
:1000300001340134820708340F3418341F34283453
:100040002F3438343F3448344F3458345F346834B4
:100050006F3478347F34803488348F34983421007E
:100060007B30990021009A1A3328BE2024003630B4
:1000700095002400023092002400960116142400FA
:1000800097019714171422009D0122009C01E3019F
:10009000E201E101E0010130C600E1000830C700E3
:1000A000E0000B21210091158B170B1720000C1479
:1000B0005928C11C5928A21F6C28A2131C302202E7
:1000C00003196C280520C9001C3022021A20D00018
:1000D0007720C101A20159280C128C12C101A20182
:1000E00059282400951200000000951608004908C0
:1000F000460203197E2803188D28852850084702D8
:1001000003199F2803189B2897280D1646084902B3
:10011000E10047085002E0009F280D1249084602FE
:10012000E100C60050084702E000C7009F284708CA
:100130005002E0009F2850084702E0009F280B2152
:1001400020008C160C12080020008B0134210D11A8
:1001500020009119B02020008B170B1738210900BF
:10016000200091010C16240011082000411CB92820
:0C017000A200C114411424001516080060
:04017C002100F4303A
:100180009500200000308B002100003091002100FC
:100190000030920025000030930025009A012200D3
:1001A0000030940020000030980020009C010030B6
:1001B00020009B0021009E139E161E1720008C011C
:1001C000230000308C00210000308C0020008D01C5
:1001D000210000308D00230000308D00240000300D
:1001E0008D0025008D0126008D0120008E01230049
:1001F00000308E002100FF308E00080020008F01AB
:10020000210000308F0023008F0124008F01250082
:060210008F0126008F01A2
:0A0216000030610703191529E40107
:100220001D21E40B1029E10B0F2900306007031991
:1002300008001D21E00B192908008D152821111C2B
:100240001F2918108D112821111C242918100800AD
:100250002000FF3097002000A030960020003430AE
:080260009800181411100800A9
:08026800A0000308A10008003A
:080270002108830020080800AA
:020000040001F9
:02000E00A4212B
:02001000FF1FD0
:00000001FF
