:020000040000FA
:020000000528D1
:040002000034003492
:08000800582921007230990013
:1000100021009A1A09286F21240036309500240007
:1000200002309200240096011614240097019714C0
:10003000171422009D0122009C011C30A3001D30DA
:10004000A4001E30A5001F30A6002030A7002130DC
:10005000A8002230A9002330B0002430B1002530A0
:10006000B2002630B3002730B4002830B500293064
:10007000B6002A30B7002B30B8002C30B9002D3034
:10008000C0002E30C1002F30C2003030C30021002C
:1000900091158B170B174C28000024009418AD20E5
:1000A0002000411C4C28A21B42142308AA2003193B
:1000B000B3282408AA200319B8282508AA20031960
:1000C000C0282608AA200319C8282708AA2003192F
:1000D000D0282808AA200319D8284C282908AA20A3
:1000E0000319B8283008AA200319E8283108AA20E3
:1000F0000319F0283208AA200319F8283308AA2087
:10010000031900293408AA20031908293508AA2050
:10011000031910293608AA20031918293708AA201C
:10012000031920293808AA20031928293908AA20E8
:10013000031930294008AA20031938294108AA20A8
:10014000031940294208AA20031948294308AA2074
:1001500003195029031122020800240095120000FF
:100160000000951608002000A201C101C2014C2820
:1001700020000C14421C0C10A201C101C2014C2829
:1001800020008C14421C8C10A201C101C2014C2819
:1001900020000C15421C0C11A201C101C2014C2807
:1001A00020008C15421C8C11A201C101C2014C28F7
:1001B00020000C16421C0C12A201C101C2014C28E5
:1001C00020008C16421C8C12A201C101C2014C28D5
:1001D00020000C17421C0C13A201C101C2014C28C3
:1001E00020008C17421C8C13A201C101C2014C28B3
:1001F00020000D14421C0D10A201C101C2014C28A7
:1002000020008D14421C8D10A201C101C2014C2896
:1002100020000D15421C0D11A201C101C2014C2884
:1002200020008D15421C8D11A201C101C2014C2874
:1002300020000D16421C0D12A201C101C2014C2862
:1002400020008D16421C8D12A201C101C2014C2852
:1002500020000D17421C0D13A201C101C2014C2840
:1002600020008D17421C8D13A201C101C2014C2830
:1002700020000F14421C0F10A201C101C2014C2822
:1002800020008F14421C8F10A201C101C2014C2812
:1002900020000F15421C0F11A201C101C2014C2800
:1002A00020008F15421C8F11A201C101C2014C28F0
:1002B00020008B01AF210D11200091196421200035
:1002C0008B170B17B3210900200091010D11240099
:0E02D00011082000A200411424001516080099
:0202DE002100FD
:1002E000F4309500200000308B0021000030910098
:1002F00021000030920025000030930025009A0173
:1003000022000030940020000030980020009C0162
:10031000003020009B0021009E139E161E17200017
:100320008C01230000308C002100FE308C00200066
:100330008D01210000308D00230000308D0024004D
:1003400000308D0025008D0126008D0120008E01DA
:0E035000230000308E002100FF308E000800D8
:02035E00A000FD
:060360000308A1000800E3
:080366002108830020080800B3
:020000040001F9
:02000E00A42923
:02001000FF1FD0
:00000001FF
