:020000040000FA
:020000000528D1
:040002000034003492
:08000800592921007230990012
:1000100021009A1A09287021240036309500240006
:1000200002309200240096011614240097019714C0
:10003000171422009D0122009C011C30A3001D30DA
:10004000A4001E30A5001F30A6002030A7002130DC
:10005000A8002230A9002330B0002430B1002530A0
:10006000B2002630B3002730B4002830B500293064
:10007000B6002A30B7002B30B8002C30B9002D3034
:10008000C0002E30C1002F30C2003030C30021002C
:1000900091158B170B174C28000024009418AE20E4
:1000A0002000411C4C28A21B4214A2132308AB20A1
:1000B0000319B4282408AB200319B9282508AB205C
:1000C0000319C1282608AB200319C9282708AB202B
:1000D0000319D1282808AB200319D9284C2829084E
:1000E000AB200319B9283008AB200319E9283108DF
:1000F000AB200319F1283208AB200319F928330883
:10010000AB20031901293408AB200319092935084C
:10011000AB20031911293608AB2003191929370818
:10012000AB20031921293808AB20031929293908E4
:10013000AB20031931294008AB20031939294108A4
:10014000AB20031941294208AB2003194929430870
:10015000AB20031951290311220208002400951233
:1001600000000000951608002000A201C101C20194
:100170004C2820000C14421C0C10A201C101C20129
:100180004C2820008C14421C8C10A201C101C20119
:100190004C2820000C15421C0C11A201C101C20107
:1001A0004C2820008C15421C8C11A201C101C201F7
:1001B0004C2820000C16421C0C12A201C101C201E5
:1001C0004C2820008C16421C8C12A201C101C201D5
:1001D0004C2820000C17421C0C13A201C101C201C3
:1001E0004C2820008C17421C8C13A201C101C201B3
:1001F0004C2820000D14421C0D10A201C101C201A7
:100200004C2820008D14421C8D10A201C101C20196
:100210004C2820000D15421C0D11A201C101C20184
:100220004C2820008D15421C8D11A201C101C20174
:100230004C2820000D16421C0D12A201C101C20162
:100240004C2820008D16421C8D12A201C101C20152
:100250004C2820000D17421C0D13A201C101C20140
:100260004C2820008D17421C8D13A201C101C20130
:100270004C2820000F14421C0F10A201C101C20122
:100280004C2820008F14421C8F10A201C101C20112
:100290004C2820000F15421C0F11A201C101C20100
:1002A0004C2820008F15421C8F11A201C101C201F0
:1002B0004C2820008B01BD210D11200091196521D2
:1002C00020008B170B17C1210900200091010D118F
:1002D000240011082000A200411424001516080073
:1002E0002100F4309500200000308B002100003008
:1002F000910021000030920025000030930025007D
:100300009A01220000309400200000309800200064
:100310009C01003020009B0021009E139E161E179A
:1003200020008C01230000308C00210000308C0064
:1003300020008D01210000308D00230000308D0051
:10034000240000308D0025008D0126008D01200045
:100350008E01230000308E002100FF308E00080047
:1003600020008F01210000308F0023008F01240026
:0A0370008F0125008F0126008F0188
:06037A00A0000308A10031
:02038000080073
:08038200210883002008080097
:020000040001F9
:02000E00A42923
:02001000FF1FD0
:00000001FF
