:020000040000FA
:020000000528D1
:040002000034003492
:08000800362921007B3099002C
:1000100021009A1A09285421240036309500240022
:10002000023092002400960116142400970117163E
:100030009714171422009D0122009C011C30A3007C
:100040001D30A4001E30A5001F30A6002030A700E0
:100050002130A8002230A9002330B0002430B100A4
:100060002530B2002630B3002730B4002830B50068
:100070002930B6002A30B7002B30B8002C30B90038
:100080002D30C0002E30C1002F30C2003030C300F0
:10009000210091158B170B17200090144F2820007A
:1000A000411C4F28A21FC428A2130F1423080311B8
:1000B00022020319C4282408031122020319D2289A
:1000C0002508031122020319D7282608031122024A
:1000D0000319DC282708031122020319E128280844
:1000E000031122020319E6284F28290803112202CE
:1000F0000319D2283008031122020319F02831080D
:10010000031122020319F5283208031122020319F0
:10011000FA283308031122020319FF2834080311B7
:10012000220203190429350803112202031909299F
:1001300036080311220203190E293708031122027F
:100140000319132938080311220203191829390841
:100150000311220203191D29400803112202031969
:1001600022294108031122020319272942080311F9
:10017000220203192C2943080311220203193129F1
:100180002000C101A2014F2820008C018F018D01A8
:10019000C101A2010F144F28240095120000000095
:1001A0009516080020000D14A201C1014F2820005F
:1001B0008D14A201C1014F2820000D15A201C1011B
:1001C0004F2820008D15A201C1014F2820000D16D7
:1001D000A201C1014F2820008D16A201C1014F28A4
:1001E00020000D17A201C1014F2820008D17A20188
:1001F000C1014F2820000C14A201C1014F2820008A
:100200008C14A201C1014F2820000C15A201C101CC
:100210004F2820008C15A201C1014F2820000C1688
:10022000A201C1014F2820008C16A201C1014F2854
:1002300020000C17A201C1014F2820008C17A20139
:10024000C1014F2820000F14A201C1014F28200036
:100250008F14A201C1014F2820000F15A201C10176
:100260004F2820008F15A201C1014F2820008B01CB
:10027000AE212000911944212400141ACC20200022
:100280008B170B17B22109002000910124001108DF
:100290002000C2002400941E512920004208A20020
:0802A0004114240015160800AA
:0802A8002100F4309500200054
:1002B00000308B00210000309100210000309200BE
:1002C00025000030930025009A01220000309400A0
:1002D00020000030980020009C01003020009B008E
:1002E00021009E139E161E1720008C012300003053
:1002F0008C00210000308C0020008D012100003096
:100300008D00230000308D00240000308D0025007A
:100310008D0126008D0120008E01230000308E000B
:100320002100FF308E0020008F01210000308F005F
:1003300023008F0124008F0125008F0126008F01EB
:1003400020001010901010112100003090002300A8
:0C0350009001240090012500900108009D
:04035C00A0000308F2
:04036000A1000800F0
:080364002108830020080800B5
:020000040001F9
:02000E00A4212B
:02001000FF1FD0
:00000001FF
