:020000040000FA
:020000002F28A7
:040002000034003492
:080008009E2882070134013437
:100010000134013401340134013401340134013438
:100020000134013401340134013401340134013428
:1000300001340134820708340F3418341F34283453
:100040002F3438343F3448344F3458345F346834B4
:100050006F3478347F34803488348F34983421007E
:100060007B30990021009A1A3328B82024003630BA
:1000700095002400023092002400960116142400FA
:1000800097019714171422009D0122009C01E3019F
:10009000E201E101E0010130C6000830C7002100A3
:1000A00091158B170B1720000C145628C11C5628CD
:1000B000A21F6728A2131C302202031967280520FB
:1000C000C9001C3022021A20D000722056280C12BF
:1000D0008C12C101A20156282400951200000000D4
:1000E000951608004908460203197928031888283C
:1000F00080285008470203199A2803189628922846
:100100000D1646084902E10047085002E0009A280F
:100110000D1249084602E100C60050084702E000FF
:10012000C7009A2847085002E0009A285008470262
:10013000E0009A2805218C160C12080020008B0183
:100140004C210D1120009119AA2020008B170B17AC
:1001500050210900200091010C16240011082000F4
:10016000411CB328A200C114411424001516080034
:100170002100F4309500200000308B002100003079
:1001800091002100003092002500003093002500EE
:100190009A012200003094002000003098002000D6
:1001A0009C01003020009B0021009E139E161E170C
:1001B00020008C01230000308C00210000308C00D6
:1001C00020008D01210000308D00230000308D00C3
:1001D000240000308D0025008D0126008D012000B7
:1001E0008E01230000308E002100FF308E000800B9
:1001F00020008F01210000308F0023008F01240098
:0A0200008F0125008F0126008F01F9
:06020A0020000030630239
:1002100003191629E601E501E4013521E40B0D2956
:10022000E50B0C298A0B0B29E30B0A29003062022B
:1002300003192329E501E4013521E40B1C29E50B11
:100240001B29E20B1A290030610203192D29E40150
:100250003521E40B2829E10B27290030600203191E
:1002600008003521E00B312908008D154021111CB3
:10027000372918108D114021111C3C291810080035
:100280002000FF3097002000A0309600200034307E
:08029000980018141110080079
:08029800A0000308A10008000A
:0802A00021088300200808007A
:020000040001F9
:02000E00A4212B
:02001000FF1FD0
:00000001FF
