:020000040000FA
:020000000528D1
:040002000034003492
:080008002C2821007230990040
:1000100021009A1A09284420240036309500240033
:100020000830920024001614240097019714171426
:1000300022009D0122009C01210091158B170B17B6
:10004000212800002400941826202128240095123D
:10005000000000009516080020008B0184200D117F
:1000600020009119382020008B170B1788200900D9
:10007000200091010D112400110820003218B10058
:080080003214240015160800DB
:080088002100F4309500200076
:1000900000308B00210000309100210000309200E0
:1000A00025000030930025009A01220000309400C2
:1000B00020000030980020009C01003020009B00B0
:1000C00021009E139E161E1620008C012300003076
:1000D0008C002100FE308C0020008D0121000030BA
:1000E0008D00230000308D00240000308D0025009D
:1000F0008D0126008D0120008E01230000308E002E
:080100002100FF308E00080011
:08010800A0000308A10008009B
:0801100021088300200808000B
:020000040001F9
:02000E00A42923
:02001000FF1FD0
:00000001FF
