:020000040000FA
:020000000528D1
:040002000034003492
:080008008328210072309900E9
:1000100021009A1A0928AC202400363095002400CB
:10002000203092002400161424009701971417140E
:1000300022009D0122009C01210091152000A201B7
:100040005530A600A7018B170B17262800002400A7
:1000500094187D202000221D2628A41B7028A41996
:10006000382824194628A418542824186228262839
:10007000261C3E280D14A61426102714A61C44285E
:100080008D142614A610A71470202628261D4C288F
:100090000D15A61526112715A61D52288D152615F6
:1000A000A611A71570202628261E5A280D16A6165A
:1000B00026122716A61E60288D162616A612A7162B
:1000C00070202628261F68280D17A6172613271725
:1000D000A61F6E288D172617A613A717702026288F
:1000E00020009E30970020005730960020003430CA
:1000F0009800181421001114080024009512000023
:1001000000009516080020008B01EC200D11200046
:10011000911991201118AC2020008B170B17F0209B
:100120000900200091010D11240011082000A500F4
:10013000A218A6282218A0282214240015160800A8
:100140002508A300A2142400151608002508A40001
:08015000221524001516080019
:080158002100F43095002000A5
:1001600000308B002100003091002100003092000F
:1001700025000030930025009A01220000309400F1
:1001800020000030980020009C01003020009B00DF
:1001900021009E139E161E1620008C0123000030A5
:1001A0008C002100FE308C0020008D012100FF30EA
:1001B0008D00230000308D00240000308D002500CC
:1001C0008D0126008D0120008E01230000308E005D
:0801D0002100FF308E00080041
:0801D800A0000308A1000800CB
:0801E00021088300200808003B
:020000040001F9
:02000E00A42923
:02001000FF1FD0
:00000001FF
