:020000040000FA
:020000000528D1
:040002000034003492
:080008008D2821007B309900D6
:1000100021009A1A0928CF202400363095002400A8
:10002000203092002400161424009701171617148C
:1000300022009D0122009C01210091152000A201B7
:100040005530A600A70120008B170B172728240086
:100050009418872020008F13221D2728A41B7628A0
:1000600024183A28A418492824195828A4196728BC
:10007000A20127282000261C41280D14A6142610B2
:100080002714A61C47288D142614A610A714762022
:1000900027282000261D50280D15A61526112715E6
:1000A000A61D56288D152615A611A71576202728DA
:1000B0002000261E5F280D16A61626122716A61E3D
:1000C00065288D162616A612A7167620272820004A
:1000D000261F6E280D17A61726132717A61F74288C
:1000E0008D172617A613A717762027288B01200027
:1000F0001818080020009E30970020005730960006
:100100002000343098001814210011140800240035
:100110009512000000009516080020008B011621A2
:100120000D11200091199B201118B62020008B176B
:100130000B171A210900200091018F1724001108C4
:100140002000A500A218B0282218AA2822142400F2
:10015000151608002508A300A2142400151608008F
:100160002508A400221524001516080020001810E8
:100170002100111020009101200027180D10A71850
:100180008D1027190D11A7198D11271A0D12A71AF5
:0E0190008D12271B0D13A71B8D13A70108004E
:02019E0021003E
:1001A000F4309500200000308B00210000309100D9
:1001B00021000030920025000030930025009A01B4
:1001C00022000030940020000030980020009C01A4
:1001D000003020009B0021009E139E161E1620005A
:1001E0008C01230000308C002100FE308C002000A8
:1001F0008D012100FF308D00230000308D00240090
:1002000000308D0025008D0126008D0120008E011B
:10021000230000308E002100FF308E0020008F016F
:0C0220002100FF308F0023008F01080038
:04022C00A000030823
:04023000A100080021
:080234002108830020080800E6
:020000040001F9
:02000E00A42923
:02001000FF1FD0
:00000001FF
