:020000040000FA
:020000000528D1
:040002000034003492
:08000800B52821007B309900AE
:1000100021009A1A0928FE20240036309500240079
:100020002030920024009601161424009701171620
:100030009714171422009D0122009C0121009115A4
:100040002000A2015530A600A70120008B170B1736
:1000500020000F308F008E142D2820008F13A21C3B
:100060002D288F17A41B9628A5012508031123020C
:1000700003194428241E492824185220A418632058
:1000800024197420A4198520A201A401A3010E1033
:100090002D2824180F14A4188F1424190F15A4192F
:1000A0008F15442820000F10261C5B280D14A61461
:1000B000261027146128A61C61288D142614A6106A
:1000C000A7149720080020008F10261D6C280D15FE
:1000D000A615261127157228A61D72288D1526151E
:1000E000A611A7159720080020000F11261E7D28B5
:1000F0000D16A616261227168328A61E83288D16EF
:100100002616A612A7169720080020008F11261F7A
:100110008E280D17A617261327179428A61F942894
:100120008D172617A613A717972008002D28200043
:100130001818080020008B012000D63097002000FE
:10014000D830960020003430980018142100111483
:10015000200011108F138B170B1708002400951225
:100160000E10000000009516080020008B014B21A6
:1001700020009119C7202400141AAE202000111865
:10018000E720910120008B170B1750210900200058
:100190000E1491118F17240011082000A5002400CF
:1001A000941EDD2820002218E02820002508A30046
:1001B00022140E1424001516080024001516080039
:1001C00020002508A400A214240015160800200011
:1001D000181021001110200027180D10A7188D10DD
:1001E00027190D11A7198D11271A0D12A71A8D1293
:0C01F000271B0D13A71B8D13A70108008F
:0401FC002100F430BA
:100200009500200000308B0021000030910021007B
:100210000030920025000030930025009A01220052
:100220000030940020000030980020009C01003035
:1002300020009B0021009E139E161E1620008C019C
:10024000230000308C002100FC308C0020008D0148
:10025000210000308D00230000308D00240000308C
:100260008D0025008D0126008D0120008E012300C8
:1002700000308E002100FC308E0020008F01210014
:1002800000308F0023008F0124008F0125008F0193
:0602900026008F010800AA
:0A0296002000A0000308A1000800EA
:0A02A0002000210883002008080058
:020000040001F9
:02000E00A4212B
:02001000FF1FD0
:00000001FF
