:020000040000FA
:020000000528D1
:040002000034003492
:08000800872821007B309900DC
:1000100021009A1A0928CD202400363095002400AA
:10002000203092002400161424009701171617148C
:1000300022009D0122009C01210091152000A201B7
:100040005530A600A70120008B170B17272820008A
:100050008F13221D2728A41B732824183728A418BF
:10006000462824195528A4196428A201272820000D
:10007000261C3E280D14A61426102714A61C44285E
:100080008D142614A610A714732027282000261DDF
:100090004D280D15A61526112715A61D53288D15BB
:1000A0002615A611A715732027282000261E5C28D8
:1000B0000D16A61626122716A61E62288D162616BF
:1000C000A612A716732027282000261F6B280D17BD
:1000D000A61726132717A61F71288D172617A613F4
:1000E000A717732027288B0120001818080020006C
:1000F0009E30970020005730960020003430980042
:10010000181421001114080024009616080020007D
:100110008B0114210D112000911995201118B42084
:1001200020008B170B1718210900200091018F1751
:1001300024001108240096122000A500A218AC2863
:100140002218A62822142400151608002508A3004A
:10015000A2142400151608002508A4002215240066
:100160009616240015160800200018102100111002
:1001700020009101200027180D10A7188D102719B5
:100180000D11A7198D11271A0D12A71A8D12271BF1
:0A0190000D13A71B8D13A701080033
:06019A002100F430950085
:1001A000200000308B002100003091002100003041
:1001B000920025000030930025009A0122000030B3
:1001C000940020000030980020009C0100302000A6
:1001D0009B0021009E139E161E1620008C012300FA
:1001E00000308C002100FE308C0020008D012100A9
:1001F000FF308D00230000308D00240000308D0082
:1002000025008D0126008D0120008E012300003085
:100210008E002100FF308E0020008F012100FF3072
:080220008F0023008F0108008C
:08022800A0000308A10008007A
:080230002108830020080800EA
:020000040001F9
:02000E00A42923
:02001000FF1FD0
:00000001FF
