:020000040000FA
:020000000528D1
:040002000034003492
:08000800962821007B309900CD
:1000100021009A1A0928DD2024003630950024009A
:100020002030920024009601161424009701171620
:100030009714171422009D0122009C0121009115A4
:100040002000A2015530A600A70120008B170B1736
:10005000292820008F13A21C29288F17A41B782879
:1000600024183C20A4184B2024195A20A4196920D4
:10007000A201A401A30129282000261C43280D1455
:10008000A61426102714A61C49288D142614A61081
:10009000A714792008002000261D52280D15A6154A
:1000A00026112715A61D58288D152615A611A7154A
:1000B000792008002000261E61280D16A61626129B
:1000C0002716A61E67288D162616A612A7167920B3
:1000D00008002000261F70280D17A61726132717C3
:1000E000A61F76288D172617A613A71779200800B4
:1000F000292820001818080020008B0120009E30BD
:1001000097002000573096002000343098001814D3
:1001100021001114200011108F138B170B170800EA
:1001200024009512000000009516080020008B01A5
:100130002A2120009119A8202400141A90202000C0
:100140001118C620910120008B170B172F210900D1
:10015000200091118F17240011082000A500240011
:10016000941EBC2820002218BF2820002508A300C8
:10017000221424001516080024001516080020007B
:100180002508A400A2142400151608002000181049
:1001900021001110200027180D10A7188D10271905
:1001A0000D11A7198D11271A0D12A71A8D12271BD1
:0A01B0000D13A71B8D13A701080013
:0601BA002100F430950065
:1001C000200000308B002100003091002100003021
:1001D000920025000030930025009A012200003093
:1001E000940020000030980020009C010030200086
:1001F0009B0021009E139E161E1620008C012300DA
:1002000000308C002100FE308C0020008D01210088
:1002100000308D00230000308D00240000308D0060
:1002200025008D0126008D0120008E012300003065
:100230008E002100FF308E0020008F012100003051
:100240008F0023008F0124008F0125008F012600DD
:040250008F01080012
:0A0254002000A0000308A10008002C
:02025E0020007E
:080260002108830020080800BA
:020000040001F9
:02000E00A42923
:02001000FF1FD0
:00000001FF
